{
  "contractName": "Ballot",
  "abi": [
    {
      "constant": true,
      "inputs": [
        {
          "name": "",
          "type": "uint256"
        }
      ],
      "name": "proposals",
      "outputs": [
        {
          "name": "name",
          "type": "bytes32"
        },
        {
          "name": "voteCount",
          "type": "uint256"
        }
      ],
      "payable": false,
      "stateMutability": "view",
      "type": "function"
    },
    {
      "constant": true,
      "inputs": [],
      "name": "chairperson",
      "outputs": [
        {
          "name": "",
          "type": "address"
        }
      ],
      "payable": false,
      "stateMutability": "view",
      "type": "function"
    },
    {
      "constant": true,
      "inputs": [
        {
          "name": "",
          "type": "uint256"
        }
      ],
      "name": "voters",
      "outputs": [
        {
          "name": "voted",
          "type": "bool"
        },
        {
          "name": "revoked",
          "type": "bool"
        },
        {
          "name": "vote",
          "type": "bytes32"
        },
        {
          "name": "publicAdress",
          "type": "address"
        }
      ],
      "payable": false,
      "stateMutability": "view",
      "type": "function"
    },
    {
      "constant": false,
      "inputs": [
        {
          "name": "proposalNames",
          "type": "bytes32[]"
        }
      ],
      "name": "setProposalNames",
      "outputs": [],
      "payable": false,
      "stateMutability": "nonpayable",
      "type": "function"
    },
    {
      "constant": true,
      "inputs": [],
      "name": "getProposalNames",
      "outputs": [
        {
          "name": "",
          "type": "uint256"
        }
      ],
      "payable": false,
      "stateMutability": "view",
      "type": "function"
    },
    {
      "constant": true,
      "inputs": [],
      "name": "getHaveRightToVote",
      "outputs": [
        {
          "name": "len_",
          "type": "uint256"
        }
      ],
      "payable": false,
      "stateMutability": "view",
      "type": "function"
    },
    {
      "constant": false,
      "inputs": [
        {
          "name": "haveRightToVote",
          "type": "address[]"
        }
      ],
      "name": "setHaveRightToVote",
      "outputs": [],
      "payable": false,
      "stateMutability": "nonpayable",
      "type": "function"
    },
    {
      "constant": false,
      "inputs": [
        {
          "name": "haveRightToVote",
          "type": "address[]"
        }
      ],
      "name": "RevokeRightToVote",
      "outputs": [],
      "payable": false,
      "stateMutability": "nonpayable",
      "type": "function"
    },
    {
      "constant": false,
      "inputs": [
        {
          "name": "tovote",
          "type": "bytes32"
        }
      ],
      "name": "vote",
      "outputs": [],
      "payable": false,
      "stateMutability": "nonpayable",
      "type": "function"
    },
    {
      "constant": true,
      "inputs": [],
      "name": "winnerName",
      "outputs": [
        {
          "name": "winnerName_",
          "type": "bytes32"
        }
      ],
      "payable": false,
      "stateMutability": "view",
      "type": "function"
    },
    {
      "constant": false,
      "inputs": [],
      "name": "startVote",
      "outputs": [],
      "payable": false,
      "stateMutability": "nonpayable",
      "type": "function"
    },
    {
      "constant": false,
      "inputs": [],
      "name": "EndVote",
      "outputs": [],
      "payable": false,
      "stateMutability": "nonpayable",
      "type": "function"
    }
  ],
  "bytecode": "0x608060405234801561001057600080fd5b50610e1a806100206000396000f3006080604052600436106100ba576000357c0100000000000000000000000000000000000000000000000000000000900463ffffffff168063013cf08b146100bf5780632e4176cf1461010f5780634c0a6af0146101665780636b5a051b1461017d57806372a413a9146101a85780637496bfcf146101bf5780639091da6914610225578063a364b5c114610250578063a69beaba146102b6578063da58c7d9146102e7578063db622e0814610379578063e2ba53f0146103df575b600080fd5b3480156100cb57600080fd5b506100ea60048036038101908080359060200190929190505050610412565b6040518083600019166000191681526020018281526020019250505060405180910390f35b34801561011b57600080fd5b50610124610445565b604051808273ffffffffffffffffffffffffffffffffffffffff1673ffffffffffffffffffffffffffffffffffffffff16815260200191505060405180910390f35b34801561017257600080fd5b5061017b61046a565b005b34801561018957600080fd5b506101926104ff565b6040518082815260200191505060405180910390f35b3480156101b457600080fd5b506101bd61050c565b005b3480156101cb57600080fd5b50610223600480360381019080803590602001908201803590602001908080602002602001604051908101604052809392919081815260200183836020028082843782019150505050505091929192905050506105c0565b005b34801561023157600080fd5b5061023a610796565b6040518082815260200191505060405180910390f35b34801561025c57600080fd5b506102b4600480360381019080803590602001908201803590602001908080602002602001604051908101604052809392919081815260200183836020028082843782019150505050505091929192905050506107a8565b005b3480156102c257600080fd5b506102e56004803603810190808035600019169060200190929190505050610884565b005b3480156102f357600080fd5b5061031260048036038101908080359060200190929190505050610a7f565b60405180851515151581526020018415151515815260200183600019166000191681526020018273ffffffffffffffffffffffffffffffffffffffff1673ffffffffffffffffffffffffffffffffffffffff16815260200194505050505060405180910390f35b34801561038557600080fd5b506103dd60048036038101908080359060200190820180359060200190808060200260200160405190810160405280939291908181526020018383602002808284378201915050505050509192919290505050610af8565b005b3480156103eb57600080fd5b506103f4610d32565b60405180826000191660001916815260200191505060405180910390f35b60018181548110151561042157fe5b90600052602060002090600202016000915090508060000154908060010154905082565b6000809054906101000a900473ffffffffffffffffffffffffffffffffffffffff1681565b6000809054906101000a900473ffffffffffffffffffffffffffffffffffffffff1673ffffffffffffffffffffffffffffffffffffffff163373ffffffffffffffffffffffffffffffffffffffff161415156104c557600080fd5b60001515600360009054906101000a900460ff16151514156104fd576001600360006101000a81548160ff0219169083151502179055505b565b6000600180549050905090565b6000809054906101000a900473ffffffffffffffffffffffffffffffffffffffff1673ffffffffffffffffffffffffffffffffffffffff163373ffffffffffffffffffffffffffffffffffffffff1614151561056757600080fd5b60011515600360009054906101000a900460ff16151514801561059d575060001515600360019054906101000a900460ff161515145b156105be576001600360016101000a81548160ff0219169083151502179055505b565b60008060009054906101000a900473ffffffffffffffffffffffffffffffffffffffff1673ffffffffffffffffffffffffffffffffffffffff163373ffffffffffffffffffffffffffffffffffffffff1614151561061d57600080fd5b600090505b815181101561075c5760026080604051908101604052806000151581526020016000151581526020016000600102600019168152602001848481518110151561066757fe5b9060200190602002015173ffffffffffffffffffffffffffffffffffffffff168152509080600181540180825580915050906001820390600052602060002090600302016000909192909190915060008201518160000160006101000a81548160ff02191690831515021790555060208201518160000160016101000a81548160ff0219169083151502179055506040820151816001019060001916905560608201518160020160006101000a81548173ffffffffffffffffffffffffffffffffffffffff021916908373ffffffffffffffffffffffffffffffffffffffff1602179055505050508080600101915050610622565b6000600360006101000a81548160ff0219169083151502179055506000600360016101000a81548160ff0219169083151502179055505050565b60008060028054905090508091505090565b6000336000806101000a81548173ffffffffffffffffffffffffffffffffffffffff021916908373ffffffffffffffffffffffffffffffffffffffff160217905550600090505b81518110156108805760016040805190810160405280848481518110151561081357fe5b90602001906020020151600019168152602001600081525090806001815401808255809150509060018203906000526020600020906002020160009091929091909150600082015181600001906000191690556020820151816001015550505080806001019150506107ef565b5050565b600080600080600360009054906101000a900460ff1680156108b35750600360019054906101000a900460ff16155b15156108be57600080fd5b3393506101f49250600091505b60028054905082101561095d578373ffffffffffffffffffffffffffffffffffffffff166002838154811015156108fe57fe5b906000526020600020906003020160020160009054906101000a900473ffffffffffffffffffffffffffffffffffffffff1673ffffffffffffffffffffffffffffffffffffffff161415610950578192505b81806001019250506108cb565b6000151560028481548110151561097057fe5b906000526020600020906003020160000160009054906101000a900460ff1615151415610a785760016002848154811015156109a857fe5b906000526020600020906003020160000160006101000a81548160ff021916908315150217905550846002848154811015156109e057fe5b90600052602060002090600302016001018160001916905550600090505b600180549050811015610a77578460001916600182815481101515610a1f57fe5b906000526020600020906002020160000154600019161415610a6a5760018082815481101515610a4b57fe5b9060005260206000209060020201600101600082825401925050819055505b80806001019150506109fe565b5b5050505050565b600281815481101515610a8e57fe5b90600052602060002090600302016000915090508060000160009054906101000a900460ff16908060000160019054906101000a900460ff16908060010154908060020160009054906101000a900473ffffffffffffffffffffffffffffffffffffffff16905084565b60008060008060009054906101000a900473ffffffffffffffffffffffffffffffffffffffff1673ffffffffffffffffffffffffffffffffffffffff163373ffffffffffffffffffffffffffffffffffffffff16141515610b5857600080fd5b600092505b8351831015610d2c57600091505b600280549050821015610d1f578383815181101515610b8657fe5b9060200190602002015173ffffffffffffffffffffffffffffffffffffffff16600283815481101515610bb557fe5b906000526020600020906003020160020160009054906101000a900473ffffffffffffffffffffffffffffffffffffffff1673ffffffffffffffffffffffffffffffffffffffff161415610d1257600090505b600180549050811015610d1157600181815481101515610c2457fe5b90600052602060002090600202016000015460001916600283815481101515610c4957fe5b90600052602060002090600302016001015460001916148015610c975750600282815481101515610c7657fe5b906000526020600020906003020160000160019054906101000a900460ff16155b15610d04576001600283815481101515610cad57fe5b906000526020600020906003020160000160016101000a81548160ff02191690831515021790555060018082815481101515610ce557fe5b9060005260206000209060020201600101600082825403925050819055505b8080600101915050610c08565b5b8180600101925050610b6b565b8280600101935050610b5d565b50505050565b600080600080600360019054906101000a900460ff161515610d5357600080fd5b60009150600090505b600180549050811015610de55781600182815481101515610d7957fe5b9060005260206000209060020201600101541115610dd857600181815481101515610da057fe5b9060005260206000209060020201600101549150600181815481101515610dc357fe5b90600052602060002090600202016000015492505b8080600101915050610d5c565b829350505050905600a165627a7a72305820637a67ca9d8bbe7143c91c8a61616e3df375f4f34f897c5bed43bb7fa00987640029",
  "source": "pragma solidity ^0.4.16;\n\n/// @title Voting with delegation.\ncontract Ballot {\n\n\n    struct Voter {\n        bool voted;  // if true, that person already voted\n        bool revoked;\n        bytes32 vote;   // index of the voted proposal\n\n        address publicAdress;\n    }\n\n    struct Proposal {\n        bytes32 name;   // short name (up to 32 bytes)\n        uint voteCount; // number of accumulated votes\n    }\n\n    address public chairperson;\n    Proposal[] public proposals;\n    Voter[] public voters;\n\n    bool voteStarted;\n    bool voteEnded;\n\n    function setProposalNames(bytes32[] proposalNames) public\n    {\n         chairperson = msg.sender;\n        for (uint i = 0; i < proposalNames.length; i++) {\n            proposals.push(Proposal({\n                name: proposalNames[i],\n                voteCount: 0\n            }));\n        }\n    }\n\n    function getProposalNames() public view returns (uint )\n                {        return proposals.length;\n\n                }\n\n\n         function getHaveRightToVote() public view returns (uint len_)\n                {        uint i = voters.length;\n                       len_ =  i;\n                }\n\n\n    function setHaveRightToVote(address[] haveRightToVote) public\n    {\n            require(\n            (msg.sender == chairperson)\n        );\n        for (uint j = 0; j < haveRightToVote.length; j++) {\n            voters.push(Voter({\n                voted: false,\n                revoked: false,\n                publicAdress: haveRightToVote[j],\n                vote: 0\n            }));\n        }\n\n    voteStarted = false;\n    voteEnded = false;\n    }\n\n\n\n\n    function RevokeRightToVote(address[] haveRightToVote) public {\n        require(\n            (msg.sender == chairperson)\n        );\n\n        for (uint j = 0; j < haveRightToVote.length; j++) {\n             for (uint k = 0; k < voters.length; k++)\n             {\n                if (voters[k].publicAdress == haveRightToVote[j])\n                {\n                             for (uint i = 0; i < proposals.length; i++) {\n           if (voters[k].vote == proposals[i].name && !voters[k].revoked)\n           {\n               voters[k].revoked= true;\n           proposals[i].voteCount -= 1;\n           }\n        }\n                }\n\n             }\n\n        }\n\n\n    }\n\n   function vote(bytes32 tovote) public\n    {\n        require(\n            (voteStarted && !voteEnded)\n        );\n\n        address voteradress = msg.sender;\n        uint voterRank = 500;\n         for (uint j = 0; j < voters.length; j++) {\n            if (voters[j].publicAdress == voteradress)\n            {\n                voterRank = j;\n            }\n        }\n\n        if (voters[voterRank].voted == false)\n        {\n            voters[voterRank].voted = true;\n         voters[voterRank].vote = tovote;\n\n         for (uint t = 0; t < proposals.length; t++) {\n            if (proposals[t].name == tovote)\n            {\n               proposals[t].voteCount += 1;\n            }\n        }\n        }\n\n\n    }\n\n\n    function winnerName() public view\n            returns (bytes32 winnerName_)\n    {\n        require(\n            (voteEnded)\n        );\n\n        bytes32 name ;\n        uint mostCount = 0;\n        for (uint t = 0; t < proposals.length; t++) {\n            if (proposals[t].voteCount > mostCount)\n            {\n                mostCount = proposals[t].voteCount;\n               name = proposals[t].name;\n            }\n        }\n        winnerName_ = name;\n    }\n\n\n    function startVote() public\n    {\n        require(\n            (msg.sender == chairperson)\n        );\n\n        if (voteStarted == false)\n        {\n            voteStarted = true;\n        }\n    }\n\n    function EndVote() public\n    {\n        require(\n            (msg.sender == chairperson)\n        );\n\n        if (voteStarted == true && voteEnded == false)\n        {\n            voteEnded = true;\n        }\n    }\n\n}\n",
  "sourcePath": "/Users/elkamel/angular-truffle-starter-dapp/contracts/Ballot.sol",
  "compiler": {
    "name": "solc",
    "version": "0.4.23+commit.124ca40d.Emscripten.clang"
  },
  "schemaVersion": "2.0.0",
  "updatedAt": "2018-05-22T23:36:47.934Z"
}